:020000040000FA
:100000000C9462000C948A000C948A000C948A0070
:100010000C948A000C948A000C948A000C948A0038
:100020000C948A000C948A000C948A000C948A0028
:100030000C948A000C948A000C948A000C948A0018
:100040000C94E5040C948A000C9455050C942F052F
:100050000C948A000C948A000C948A000C948A00F8
:100060000C948A000C948A000000000023002600F3
:10007000290000000000240027002A0000000000E2
:10008000250028002B0004040404040404040202D4
:100090000202020203030303030301020408102007
:1000A0004080010204081020010204081020000012
:1000B0000008000201000003040700000000000027
:1000C0000000CC0511241FBECFEFD8E0DEBFCDBFAE
:1000D00011E0A0E0B1E0E4E6F5E102C005900D9288
:1000E000A239B107D9F722E0A2E9B1E001C01D921F
:1000F000A935B207E1F710E0C2E6D0E004C02197CD
:10010000FE010E94AA0AC136D107C9F70E9416064D
:100110000C94B00A0C94000090E0FC01E255FF4FF3
:100120002491FC01E656FF4F3491FC01EA57FF4F42
:10013000E491EE23C9F0222339F0233001F1A8F431
:10014000213019F1223029F1F0E0EE0FFF1FE458C1
:10015000FF4FA591B4918FB7F894EC91611126C02F
:1001600030953E233C938FBF08952730A9F0283067
:10017000C9F0243049F7809180008F7D03C08091C1
:1001800080008F7780938000DFCF84B58F7784BD28
:10019000DBCF84B58F7DFBCF8091B0008F778093CC
:1001A000B000D2CF8091B0008F7DF9CF3E2BDACF57
:1001B000CF93DF9390E0FC01E656FF4F24918A57DE
:1001C0009F4FFC0184918823D1F090E0880F991F04
:1001D000FC01EE58FF4FA591B491FC01E458FF4F8C
:1001E000C591D49161110EC09FB7F8948C91E22F04
:1001F000E0958E238C932881E223E8839FBFDF91D3
:10020000CF9108958FB7F894EC91E22BEC938FBFC8
:10021000F6CF3FB7F8948091A0019091A101A091F1
:10022000A201B091A30126B5A89B05C02F3F19F0EC
:100230000196A11DB11D3FBFBA2FA92F982F882766
:10024000BC01CD01620F711D811D911D42E0660F41
:10025000771F881F991F4A95D1F708958F929F9213
:10026000AF92BF92CF92DF92EF92FF924B015C016F
:100270000E9409016B017C010E9409016C197D0932
:100280008E099F09683E734081059105A8F321E01E
:10029000821A9108A108B10888EEC80E83E0D81E22
:1002A000E11CF11C81149104A104B10429F7FF9011
:1002B000EF90DF90CF90BF90AF909F908F90089578
:1002C000AF92BF92CF92DF92EF92FF920F931F9364
:1002D000CF93DF936C017B018B01040F151FEB01A2
:1002E0005E01AE18BF08C017D10759F06991D60159
:1002F000ED91FC910190F081E02DC6010995892BCB
:1003000079F7C501DF91CF911F910F91FF90EF9089
:10031000DF90CF90BF90AF900895FC01538D448D36
:10032000252F30E0842F90E0821B930B541710F0A0
:10033000CF96089501970895FC01918D828D9817AD
:1003400061F0A28DAE0FBF2FB11D5D968C91928D85
:100350009F5F9F73928F90E008958FEF9FEF0895B6
:10036000FC01918D828D981731F0828DE80FF11D7F
:10037000858D90E008958FEF9FEF0895FC01918D9A
:10038000228D892F90E0805C9F4F821B91098F7393
:100390009927089584EA91E00E94BE0121E0892B0B
:1003A00009F420E0822F089580E090E0892B29F065
:1003B0000E94CA0181110C9400000895FC01A48DD3
:1003C000A80FB92FB11DA35ABF4F2C91848D90E077
:1003D00001968F739927848FA689B7892C93A0895A
:1003E000B1898C91837080648C93938D848D9813E4
:1003F00006C00288F389E02D80818F7D8083089577
:10040000EF92FF920F931F93CF93DF93EC0181E064
:10041000888F9B8D8C8D98131AC0E889F98980810B
:1004200085FF15C09FB7F894EE89FF896083E8893E
:10043000F98980818370806480839FBF81E090E030
:10044000DF91CF911F910F91FF90EF900895F62EBD
:100450000B8D10E00F5F1F4F0F731127E02E8C8D57
:100460008E110CC00FB607FCFACFE889F98980819C
:1004700085FFF5CFCE010E94DE01F1CFEB8DEC0FB1
:10048000FD2FF11DE35AFF4FF0829FB7F8940B8FB9
:10049000EA89FB8980818062CFCFCF93DF93EC0123
:1004A000888D8823B9F0AA89BB89E889F9898C915C
:1004B00085FD03C0808186FD0DC00FB607FCF7CF18
:1004C0008C9185FFF2CF808185FFEDCFCE010E9418
:1004D000DE01E9CFDF91CF910895089590E080E0AB
:1004E0000895FC0101900020E9F73197AF01481B06
:1004F000590BBC0181E492E00C9460018F929F92B1
:10050000AF92BF920F931F93CF93DF93CDB7DEB718
:10051000A1970FB6F894DEBF0FBECDBF19A242302F
:1005200008F44AE08E010F5D1F4F842E912CB12CF0
:10053000A12CA50194010E94880AE62FB901CA01E5
:10054000EA30F4F4E05DD801EE938D01232B242BE7
:10055000252B79F790E080E0109719F0CD010E94EB
:100560007102A1960FB6F894DEBF0FBECDBFDF912A
:10057000CF911F910F91BF90AF909F908F90089552
:10058000E95CE1CF0C947102CF93DF93EC0160E062
:100590008E810E948C0061E08E810E948C0060E060
:1005A0008E810E948C008BE891E00197F1F7DF913A
:1005B000CF910895CF92DF92EF92FF920F931F9306
:1005C000CF93DF936C017C0187E0E80EF11CD0E053
:1005D000C0E0062F10E0B8010C2E02C0759567959B
:1005E0000A94E2F76170F70181917F010E948C000B
:1005F0002196C430D10579F7C601DF91CF911F91C3
:100600000F91FF90EF90DF90CF900C94C402CF92A7
:10061000DF92EF92FF920F931F93CF93DF93EC0142
:10062000F62E642F8C810E948C008D818F3F19F0F3
:1006300060E00E948C000F2D10E08F8584FF25C0A4
:100640006E0187E0C80ED11CF12CE12CB8010E2CF4
:1006500002C0759567950A94E2F76170F601819181
:100660006F010E948C00FFEFEF1AFF0A88E0E81686
:10067000F10461F7CE01DF91CF911F910F91FF90AF
:10068000EF90DF90CF900C94C402B80184E0759590
:1006900067958A95E1F7CE010E94DA026F2DCE01AF
:1006A000DF91CF911F910F91FF90EF90DF90CF904E
:1006B0000C94DA0240E0682F81E492E00C94070386
:1006C00081E00E945A038BE39FE10197F1F70895BF
:1006D000CF93DF93823029F49091500298609093E9
:1006E0005002809354021092550280E48093560287
:1006F00080E18093570280E58093580261E0809109
:1007000045020E94D800809146028F3F19F061E0B7
:100710000E94D80061E0809147020E94D800C1E4A5
:10072000D2E09E01215432408091500284FD0BC0E2
:1007300084E090E021962817390744F461E08E8127
:100740000E94D800EECF88E090E0F4CF8BE39DE0EC
:100750000197F1F760E0809145020E948C0060E013
:10076000809147020E948C00809146028F3F19F0D1
:1007700060E00E948C008091500284FD34C063E0F0
:1007800081E492E00E94DA02CBE4D6E4CE01019744
:10079000F1F763E081E492E00E94DA022197F1F739
:1007A00063E081E492E00E94DA0283E592E001973F
:1007B000F1F762E081E492E00E94DA028091500257
:1007C00080620E945A0384E0809351028CE00E9470
:1007D0005A030E94600382E08093520286E0DF9118
:1007E000CF910C945A0380620E945A038BE496E4E2
:1007F0000197F1F78091500280620E945A0383E5CD
:1008000092E00197F1F78091500280620E945A03B2
:10081000D5CF90915402891710F08FEF890FE82FF0
:10082000F0E0EF5BFD4F848980680C945A0341E04F
:100830000E94070381E090E008954F925F926F92CB
:100840007F928F929F92AF92BF92CF92DF92EF9260
:10085000FF921F93CF93DF936B017C01142FAC01A8
:100860009B010E94830A882399F08EE191E0DF9139
:10087000CF911F91FF90EF90DF90CF90BF90AF90FE
:100880009F908F907F906F905F904F900C9471022B
:1008900046015701E894B7F82FEF3FEF4FE75FE7C6
:1008A000C501B4010E94830A81110DC02FEF3FEFF3
:1008B0004FE75FE7C501B4010E94B90818161CF4A0
:1008C00082E291E0D4CF2FEF3FEF4FE75FE4C70123
:1008D000B6010E94110A18161CF486E291E0C7CFF7
:1008E0002FEF3FEF4FE75FECC701B6010E94B90859
:1008F00087FDF3CF20E030E0A901C701B6010E94D7
:10090000B908D0E0C0E087FF0CC041E06DE281E4AF
:1009100092E00E940703F7FAF094F7F8F094C1E030
:10092000D0E020E060E070E080E09FE3211740F439
:1009300020E030E040E251E40E94BE0821E0F6CF22
:10094000A70196010E944D082B013C010E9430092D
:100950004B015C014AE00E947E027C01EC0EFD1E10
:10096000112311F141E06EE281E492E00E9407035D
:100970008FEFE81AF80AC501B4010E945F099B01D4
:10098000AC01C301B2010E944C0820E030E040E21B
:1009900051E40E94160A0E94300990E080E04AE08B
:1009A0000E947E02E80EF91EC701DF91CF911F91D0
:1009B000FF90EF90DF90CF90BF90AF909F908F907F
:1009C0007F906F905F904F9008951F920F920FB697
:1009D0000F9211242F933F938F939F93AF93BF93C5
:1009E00080919C0190919D01A0919E01B0919F01E9
:1009F00030919B0123E0230F2D3758F50196A11D5F
:100A0000B11D20939B0180939C0190939D01A09325
:100A10009E01B0939F018091A0019091A101A091AE
:100A2000A201B091A3010196A11DB11D8093A00167
:100A30009093A101A093A201B093A301BF91AF91A4
:100A40009F918F913F912F910F900FBE0F901F900C
:100A5000189526E8230F0296A11DB11DD2CF1F9233
:100A60000F920FB60F9211242F933F934F935F93E2
:100A70006F937F938F939F93AF93BF93EF93FF9366
:100A800084EA91E00E94DE01FF91EF91BF91AF9166
:100A90009F918F917F916F915F914F913F912F9196
:100AA0000F900FBE0F901F9018951F920F920FB6C8
:100AB0000F9211242F938F939F93EF93FF93E091C5
:100AC000B401F091B5018081E091BA01F091BB01D0
:100AD00082FD1BC090818091BD018F5F8F7320913B
:100AE000BE01821741F0E091BD01F0E0EC55FE4FF0
:100AF000958F8093BD01FF91EF919F918F912F91E1
:100B00000F900FBE0F901F9018958081F4CFCF9259
:100B1000DF92EF92FF920F931F93E82FF92F05C0FA
:100B2000015011092109310961F19081962394172F
:100B3000B9F305C0015011092109310911F1908162
:100B400096239413F7CFC12CD12CE12CF12C0AC0A1
:100B50008FEFC81AD80AE80AF80A0C151D052E05E9
:100B60003F0579F080818623841791F36C2D7D2DCC
:100B70008E2D9F2D1F910F91FF90EF90DF90CF90C2
:100B8000089560E070E080E090E01F910F91FF9089
:100B9000EF90DF90CF900895E4EAF1E013821282A3
:100BA00088EE93E0A0E0B0E084839583A683B783CA
:100BB00084E091E09183808385EC90E09587848741
:100BC00084EC90E09787868780EC90E0918B808B17
:100BD00081EC90E0938B828B82EC90E0958B848B00
:100BE00086EC90E0978B868B118E128E138E148E6E
:100BF000E1E4F2E01382128286E191E09183808346
:100C000082E084838FEF858383E0868384E087831B
:100C100085E0808786E0818787E082871386148657
:100C200015861686178681E00C946803789484B53F
:100C3000826084BD84B5816084BD85B5826085BDD8
:100C400085B5816085BD80916E00816080936E0066
:100C50001092810080918100826080938100809158
:100C60008100816080938100809180008160809309
:100C700080008091B10084608093B1008091B000C9
:100C800081608093B00080917A00846080937A00C4
:100C900080917A00826080937A0080917A008160EE
:100CA00080937A0080917A00806880937A00109215
:100CB000C100E091B401F091B50182E08083E09140
:100CC000B001F091B1011082E091B201F091B30155
:100CD0008FEC80831092BC01E091B801F091B901D2
:100CE00086E08083E091B601F091B7018081806158
:100CF0008083E091B601F091B701808188608083A4
:100D0000E091B601F091B701808180688083E09125
:100D1000B601F091B70180818F7D808361E08FE023
:100D20000E94D80060E08EE00E94D80061E082E17D
:100D30000E94D80061E080E00E94D80060E080E17D
:100D40000E94D80082E00E94680380E00E940904AB
:100D50008AE291E00E94C20268EE73E080E090E0D7
:100D60000E942E0161E082E10E948C000E946003DB
:100D7000C3E0D0E093E2A92EB12C24E9222E20E09A
:100D8000322E30E0832E30E0932E60E08FE00E9420
:100D90008C00CE010197F1F761E08FE00E948C009A
:100DA000C5010197F1F760E08FE00E948C00E8EA4E
:100DB000F0E06491F1018491E82FF0E0EE0FFF1F65
:100DC000E859FF4F8591949100E412E42FE030E060
:100DD000462F0E948705611571058105910529F04F
:100DE0006F5F7F4F8F4F9F4F9F700E945F0920E082
:100DF00030E040E05FE30E94160A2DEC3CEC48EE48
:100E000051E40E94BE08609397017093980180930B
:100E1000990190939A01F2E4F0937C0080917A001A
:100E2000806480937A0080917A0086FDFCCF609187
:100E3000780070917900072E000C880B990B0E94A6
:100E4000610926EF38E24CE950E40E94160A20E0DE
:100E500030E040E251E40E94BE0860939301709339
:100E60009401809395019093960180919201811154
:100E700036C00E94600380E00E9409048BE391E089
:100E80000E94C2026091970170919801809199012E
:100E900090919A0150E040E00E941D0485E491E0A9
:100EA0000E94C20281E00E94090488E491E00E944D
:100EB000C20260919301709194018091950190918B
:100EC000960141E050E00E941D0485E591E00E94FA
:100ED000C20268EE73E080E090E00E942E01409034
:100EE0009301509094016090950170909601C0908C
:100EF0009701D0909801E0909901F0909A0120E03C
:100F000030E040E252E4C301B2010E94110A87FDC1
:100F100048C020E030E048E452E4C301B2010E943E
:100F2000B90818160CF43DC020E030E048ED51E45B
:100F3000C701B6010E94B90818169CF120E030E004
:100F400040E751E4C701B6010E94110A18164CF59A
:100F500081E08093920161E080E00E948C000E9419
:100F6000600380E00E94090489E591E00E94C202CA
:100F700081E00E94090486E691E00E94C20268ECCA
:100F800070E080E090E00E942E018114910409F449
:100F9000FCCE0E94CA01882309F4F7CE0E9400000B
:100FA000F4CE20E030E040E752E4C301B2010E94F9
:100FB000110A18160CF047C020E030E040EA51E476
:100FC000C701B6010E94110A87FD19C020E030E078
:100FD00040EF51E4C701B6010E94B90818167CF031
:100FE00081E08093920161E080E00E948C000E9489
:100FF000600380E00E94090484E791E0B7CF20E01D
:1010000030E040EA51E4C701B6010E94B90887FF09
:101010001AC081E08093920161E080E00E948C0020
:1010200060E082E10E948C000E94600380E00E94E8
:10103000090484E791E00E94C20281E00E94090451
:1010400082E891E09ACF20E030E040E252E4C30130
:10105000B2010E94110A1816A4F420E030E048E41E
:1010600052E4C301B2010E94B908181654F020E0FE
:1010700030E040E751E4C701B6010E94B90887FD9E
:10108000C8CF1092920161E082E10E948C0060E082
:1010900080E00E948C0073CF5058BB27AA270E9483
:1010A00064080C94D7090E94C90938F00E94D0093D
:1010B00020F039F49F3F19F426F40C94C6090EF47D
:1010C000E095E7FB0C94C009E92F0E94E80958F36A
:1010D000BA17620773078407950720F079F4A6F51D
:1010E0000C940A0A0EF4E0950B2EBA2FA02D0B01DA
:1010F000B90190010C01CA01A0011124FF27591B5D
:1011000099F0593F50F4503E68F11A16F040A22F62
:10111000232F342F4427585FF3CF469537952795D3
:10112000A795F0405395C9F77EF41F16BA0B620BD2
:10113000730B840BBAF09150A1F0FF0FBB1F661F19
:10114000771F881FC2F70EC0BA0F621F731F841F5C
:1011500048F4879577956795B795F7959E3F08F082
:10116000B0CF9395880F08F09927EE0F9795879544
:1011700008950E949C0908F481E008950E94D20815
:101180000C94D7090E94D00958F00E94C90940F078
:1011900029F45F3F29F00C94C00951110C940B0AFB
:1011A0000C94C6090E94E80968F39923B1F355230A
:1011B00091F3951B550BBB27AA276217730784076A
:1011C00038F09F5F5F4F220F331F441FAA1FA9F300
:1011D00035D00E2E3AF0E0E832D091505040E695EE
:1011E000001CCAF72BD0FE2F29D0660F771F881F4F
:1011F000BB1F261737074807AB07B0E809F0BB0B42
:10120000802DBF01FF2793585F4F3AF09E3F510555
:1012100078F00C94C0090C940B0A5F3FE4F3983EFD
:10122000D4F3869577956795B795F7959F5FC9F73E
:10123000880F911D9695879597F90895E1E0660FBF
:10124000771F881FBB1F621773078407BA0720F038
:10125000621B730B840BBA0BEE1F88F7E0950895A1
:101260000E94F00988F09F5798F0B92F9927B7513D
:10127000B0F0E1F0660F771F881F991F1AF0BA953A
:10128000C9F714C0B13091F00E940A0AB1E0089584
:101290000C940A0A672F782F8827B85F39F0B93F76
:1012A000CCF3869577956795B395D9F73EF49095ED
:1012B0008095709561957F4F8F4F9F4F0895E8946B
:1012C00009C097FB3EF490958095709561957F4F8E
:1012D0008F4F9F4F9923A9F0F92F96E9BB2793953C
:1012E000F695879577956795B795F111F8CFFAF44C
:1012F000BB0F11F460FF1BC06F5F7F4F8F4F9F4F7D
:1013000016C0882311F096E911C0772321F09EE8DA
:10131000872F762F05C0662371F096E8862F70E040
:1013200060E02AF09A95660F771F881FDAF7880F1A
:101330009695879597F90895990F0008550FAA0B70
:10134000E0E8FEEF16161706E807F907C0F01216D8
:101350001306E407F50798F0621B730B840B950BDB
:1013600039F40A2661F0232B242B252B21F4089530
:101370000A2609F4A140A6958FEF811D811D0895CD
:1013800097F99F6780E870E060E008959FEF80EC38
:10139000089500240A9416161706180609060895DB
:1013A00000240A9412161306140605060895092E41
:1013B0000394000C11F4882352F0BB0F40F4BF2BB0
:1013C00011F460FF04C06F5F7F4F8F4F9F4F0895F0
:1013D00057FD9058440F551F59F05F3F71F04795E6
:1013E000880F97FB991F61F09F3F79F087950895CB
:1013F000121613061406551FF2CF4695F1DF08C0EA
:10140000161617061806991FF1CF86957105610506
:1014100008940895E894BB2766277727CB0197F9AE
:1014200008950E949C0908F48FEF08950E94290AEC
:101430000C94D7090E94C90938F00E94D00920F005
:10144000952311F00C94C0090C94C60911240C9436
:101450000B0A0E94E80970F3959FC1F3950F50E0C5
:10146000551F629FF001729FBB27F00DB11D639F56
:10147000AA27F00DB11DAA1F649F6627B00DA11DFC
:10148000661F829F2227B00DA11D621F739FB00DA2
:10149000A11D621F839FA00D611D221F749F332712
:1014A000A00D611D231F849F600D211D822F762FAB
:1014B0006A2F11249F5750409AF0F1F088234AF088
:1014C000EE0FFF1FBB1F661F771F881F91505040F4
:1014D000A9F79E3F510580F00C94C0090C940B0AAB
:1014E0005F3FE4F3983ED4F3869577956795B7957B
:1014F000F795E7959F5FC1F7FE2B880F911D969595
:10150000879597F908950E949C09880B990B089577
:10151000A1E21A2EAA1BBB1BFD010DC0AA1FBB1FF7
:10152000EE1FFF1FA217B307E407F50720F0A21B69
:10153000B30BE40BF50B661F771F881F991F1A94D6
:1015400069F760957095809590959B01AC01BD0100
:10155000CF010895EE0FFF1F0590F491E02D09943F
:10156000F894FFCF00000000000260018D014D02E1
:10157000BE019C01B00100000000170460016E0272
:101580006D026E616E00696E66006F7666002020E7
:10159000536166652044697374616E63652000441D
:1015A000697374616E63653D00636D0054656D70B1
:1015B000657261747572653D00C2B0430053797302
:1015C00074656D20416C65727400636C6F73652087
:1015D0006F626A656374210053797374656D20418D
:1015E0006C6572743A0053797374656D204C4F4387
:0615F0004B454421000000
:107E0000112484B714BE81FFF0D085E080938100F7
:107E100082E08093C00088E18093C10086E0809377
:107E2000C20080E18093C4008EE0C9D0259A86E02C
:107E300020E33CEF91E0309385002093840096BBD3
:107E4000B09BFECF1D9AA8958150A9F7CC24DD24C4
:107E500088248394B5E0AB2EA1E19A2EF3E0BF2EE7
:107E6000A2D0813461F49FD0082FAFD0023811F036
:107E7000013811F484E001C083E08DD089C08234E0
:107E800011F484E103C0853419F485E0A6D080C0E4
:107E9000853579F488D0E82EFF2485D0082F10E0AE
:107EA000102F00270E291F29000F111F8ED06801E7
:107EB0006FC0863521F484E090D080E0DECF843638
:107EC00009F040C070D06FD0082F6DD080E0C81688
:107ED00080E7D80618F4F601B7BEE895C0E0D1E017
:107EE00062D089930C17E1F7F0E0CF16F0E7DF06D8
:107EF00018F0F601B7BEE89568D007B600FCFDCFD4
:107F0000A601A0E0B1E02C9130E011968C91119780
:107F100090E0982F8827822B932B1296FA010C0160
:107F200087BEE89511244E5F5F4FF1E0A038BF0790
:107F300051F7F601A7BEE89507B600FCFDCF97BE46
:107F4000E89526C08437B1F42ED02DD0F82E2BD052
:107F50003CD0F601EF2C8F010F5F1F4F84911BD097
:107F6000EA94F801C1F70894C11CD11CFA94CF0C13
:107F7000D11C0EC0853739F428D08EE10CD085E9AC
:107F80000AD08FE07ACF813511F488E018D01DD067
:107F900080E101D065CF982F8091C00085FFFCCF94
:107FA0009093C60008958091C00087FFFCCF809118
:107FB000C00084FD01C0A8958091C6000895E0E648
:107FC000F0E098E1908380830895EDDF803219F02E
:107FD00088E0F5DFFFCF84E1DECF1F93182FE3DFCA
:107FE0001150E9F7F2DF1F91089580E0E8DFEE27F6
:047FF000FF270994CA
:027FFE00040479
:00000001FF
