:100000000C9462000C948A000C948A000C948A0070
:100010000C948A000C948A000C948A000C948A0038
:100020000C948A000C948A000C948A000C948A0028
:100030000C948A000C948A000C948A000C948A0018
:100040000C94FA040C948A000C946A050C944405F0
:100050000C948A000C948A000C948A000C948A00F8
:100060000C948A000C948A000000000023002600F3
:10007000290000000000240027002A0000000000E2
:10008000250028002B0004040404040404040202D4
:100090000202020203030303030301020408102007
:1000A0004080010204081020010204081020000012
:1000B0000008000201000003040700000000000027
:1000C0000000E10511241FBECFEFD8E0DEBFCDBF99
:1000D00011E0A0E0B1E0EEEDF5E102C005900D9277
:1000E000A03AB107D9F722E0A0EAB1E001C01D9221
:1000F000A936B207E1F710E0C2E6D0E004C02197CC
:10010000FE010E94E70AC136D107C9F70E942B06FB
:100110000C94ED0A0C94000090E0FC01E255FF4FB6
:100120002491FC01E656FF4F3491FC01EA57FF4F42
:10013000E491EE23C9F0222339F0233001F1A8F431
:10014000213019F1223029F1F0E0EE0FFF1FE458C1
:10015000FF4FA591B4918FB7F894EC91611126C02F
:1001600030953E233C938FBF08952730A9F0283067
:10017000C9F0243049F7809180008F7D03C08091C1
:1001800080008F7780938000DFCF84B58F7784BD28
:10019000DBCF84B58F7DFBCF8091B0008F778093CC
:1001A000B000D2CF8091B0008F7DF9CF3E2BDACF57
:1001B000CF93DF9390E0FC01E656FF4F24918A57DE
:1001C0009F4FFC0184918823D1F090E0880F991F04
:1001D000FC01EE58FF4FA591B491FC01E458FF4F8C
:1001E000C591D49161110EC09FB7F8948C91E22F04
:1001F000E0958E238C932881E223E8839FBFDF91D3
:10020000CF9108958FB7F894EC91E22BEC938FBFC8
:10021000F6CF8D3009F08E508770806480937C001B
:1002200080917A00806480937A0080917A0086FDC4
:10023000FCCF809178009091790008953FB7F894B1
:100240008091B0019091B101A091B201B091B30140
:1002500026B5A89B05C02F3F19F00196A11DB11D21
:100260003FBFBA2FA92F982F8827BC01CD01620F5D
:10027000711D811D911D42E0660F771F881F991F18
:100280004A95D1F708958F929F92AF92BF92CF92E5
:10029000DF92EF92FF924B015C010E941E016B0105
:1002A0007C010E941E016C197D098E099F09683E20
:1002B000734081059105A8F321E0821A9108A108F5
:1002C000B10888EEC80E83E0D81EE11CF11C811431
:1002D0009104A104B10429F7FF90EF90DF90CF9033
:1002E000BF90AF909F908F900895AF92BF92CF92A2
:1002F000DF92EF92FF920F931F93CF93DF936C01E6
:100300007B018B01040F151FEB015E01AE18BF08C6
:10031000C017D10759F06991D601ED91FC91019078
:10032000F081E02DC6010995892B79F7C501DF9190
:10033000CF911F910F91FF90EF90DF90CF90BF90E2
:10034000AF900895FC01538D448D252F30E0842F0C
:1003500090E0821B930B541710F0CF9608950197ED
:100360000895FC01918D828D981761F0A28DAE0FDA
:10037000BF2FB11D5D968C91928D9F5F9F73928F61
:1003800090E008958FEF9FEF0895FC01918D828D8D
:10039000981731F0828DE80FF11D858D90E008955A
:1003A0008FEF9FEF0895FC01918D228D892F90E0B2
:1003B000805C9F4F821B91098F739927089584EB6E
:1003C00091E00E94D30121E0892B09F420E0822FE3
:1003D000089580E090E0892B29F00E94DF018111CF
:1003E0000C9400000895FC01A48DA80FB92FB11D35
:1003F000A35ABF4F2C91848D90E001968F7399275B
:10040000848FA689B7892C93A089B1898C91837038
:1004100080648C93938D848D981306C00288F38931
:10042000E02D80818F7D80830895EF92FF920F935E
:100430001F93CF93DF93EC0181E0888F9B8D8C8D90
:1004400098131AC0E889F989808185FF15C09FB784
:10045000F894EE89FF896083E889F9898081837047
:10046000806480839FBF81E090E0DF91CF911F91F6
:100470000F91FF90EF900895F62E0B8D10E00F5F17
:100480001F4F0F731127E02E8C8D8E110CC00FB6ED
:1004900007FCFACFE889F989808185FFF5CFCE0185
:1004A0000E94F301F1CFEB8DEC0FFD2FF11DE35A0C
:1004B000FF4FF0829FB7F8940B8FEA89FB89808108
:1004C0008062CFCFCF93DF93EC01888D8823B9F082
:1004D000AA89BB89E889F9898C9185FD03C080814F
:1004E00086FD0DC00FB607FCF7CF8C9185FFF2CFCC
:1004F000808185FFEDCFCE010E94F301E9CFDF912E
:10050000CF910895089590E080E00895FC01019056
:100510000020E9F73197AF01481B590BBC0181E579
:1005200092E00C9475018F929F92AF92BF920F93BD
:100530001F93CF93DF93CDB7DEB7A1970FB6F89493
:10054000DEBF0FBECDBF19A2423008F44AE08E01D3
:100550000F5D1F4F842E912CB12CA12CA50194016D
:100560000E94C50AE62FB901CA01EA30F4F4E05D41
:10057000D801EE938D01232B242B252B79F790E0C6
:1005800080E0109719F0CD010E948602A1960FB667
:10059000F894DEBF0FBECDBFDF91CF911F910F91B9
:1005A000BF90AF909F908F900895E95CE1CF0C943D
:1005B0008602CF93DF93EC0160E08E810E948C0075
:1005C00061E08E810E948C0060E08E810E948C0030
:1005D0008BE891E00197F1F7DF91CF910895CF92E9
:1005E000DF92EF92FF920F931F93CF93DF936C01F3
:1005F0007C0187E0E80EF11CD0E0C0E0062F10E09F
:10060000B8010C2E02C0759567950A94E2F76170E7
:10061000F70181917F010E948C002196C430D105A1
:1006200079F7C601DF91CF911F910F91FF90EF9065
:10063000DF90CF900C94D902CF92DF92EF92FF928D
:100640000F931F93CF93DF93EC01F62E642F8C81D1
:100650000E948C008D818F3F19F060E00E948C0019
:100660000F2D10E08F8584FF25C06E0187E0C80E36
:10067000D11CF12CE12CB8010E2C02C075956795A8
:100680000A94E2F76170F60181916F010E948C007B
:10069000FFEFEF1AFF0A88E0E816F10461F7CE01D8
:1006A000DF91CF911F910F91FF90EF90DF90CF904E
:1006B0000C94D902B80184E0759567958A95E1F7A5
:1006C000CE010E94EF026F2DCE01DF91CF911F91DD
:1006D0000F91FF90EF90DF90CF900C94EF0240E0ED
:1006E000682F81E592E00C941C0381E00E946F0367
:1006F0008BE39FE10197F1F70895CF93DF93823069
:1007000029F4909160029860909360028093640253
:100710001092650280E48093660280E18093670214
:1007200080E58093680261E0809155020E94D800C4
:10073000809156028F3F19F061E00E94D80061E07D
:10074000809157020E94D800C1E5D2E09E01215558
:1007500032408091600284FD0BC084E090E02196DD
:100760002817390744F461E08E810E94D800EECF4B
:1007700088E090E0F4CF8BE39DE00197F1F760E033
:10078000809155020E948C0060E0809157020E9487
:100790008C00809156028F3F19F060E00E948C001F
:1007A0008091600284FD34C063E081E592E00E94A4
:1007B000EF02CBE4D6E4CE010197F1F763E081E5E7
:1007C00092E00E94EF022197F1F763E081E592E069
:1007D0000E94EF0283E592E00197F1F762E081E584
:1007E00092E00E94EF028091600280620E946F039B
:1007F00084E0809361028CE00E946F030E94750385
:1008000082E08093620286E0DF91CF910C946F03C7
:1008100080620E946F038BE496E40197F1F7809168
:10082000600280620E946F0383E592E00197F1F716
:100830008091600280620E946F03D5CF9091640224
:10084000891710F08FEF890FE82FF0E0EF5AFD4F76
:10085000848980680C946F0341E00E941C0381E04E
:1008600090E008954F925F926F927F928F929F9245
:10087000AF92BF92CF92DF92EF92FF921F93CF93EE
:10088000DF936B017C01142FAC019B010E94C00A15
:10089000882399F08EE191E0DF91CF911F91FF9035
:1008A000EF90DF90CF90BF90AF909F908F907F9010
:1008B0006F905F904F900C94860246015701E89428
:1008C000B7F82FEF3FEF4FE75FE7C501B4010E9494
:1008D000C00A81110DC02FEF3FEF4FE75FE7C50161
:1008E000B4010E94F60818161CF482E291E0D4CFFD
:1008F0002FEF3FEF4FE75FE4C701B6010E944E0ABA
:1009000018161CF486E291E0C7CF2FEF3FEF4FE7B8
:100910005FECC701B6010E94F60887FDF3CF20E027
:1009200030E0A901C701B6010E94F608D0E0C0E09E
:1009300087FF0CC041E06DE281E592E00E941C035C
:10094000F7FAF094F7F8F094C1E0D0E020E060E02E
:1009500070E080E09FE3211740F420E030E040E2C7
:1009600051E40E94FB0821E0F6CFA70196010E9406
:100970008A082B013C010E946D094B015C014AE091
:100980000E9493027C01EC0EFD1E112311F141E047
:100990006EE281E592E00E941C038FEFE81AF80AEC
:1009A000C501B4010E949C099B01AC01C301B201C5
:1009B0000E94890820E030E040E251E40E94530A9E
:1009C0000E946D0990E080E04AE00E949302E80EE8
:1009D000F91EC701DF91CF911F91FF90EF90DF903B
:1009E000CF90BF90AF909F908F907F906F905F90CF
:1009F0004F9008951F920F920FB60F9211242F93CC
:100A00003F938F939F93AF93BF938091AC0190914D
:100A1000AD01A091AE01B091AF013091AB0123E0E7
:100A2000230F2D3758F50196A11DB11D2093AB0161
:100A30008093AC019093AD01A093AE01B093AF0150
:100A40008091B0019091B101A091B201B091B30138
:100A50000196A11DB11D8093B0019093B101A093A7
:100A6000B201B093B301BF91AF919F918F913F912C
:100A70002F910F900FBE0F901F90189526E8230F0F
:100A80000296A11DB11DD2CF1F920F920FB60F92E9
:100A900011242F933F934F935F936F937F938F9383
:100AA0009F93AF93BF93EF93FF9384EB91E00E94EA
:100AB000F301FF91EF91BF91AF919F918F917F9142
:100AC0006F915F914F913F912F910F900FBE0F90BB
:100AD0001F9018951F920F920FB60F9211242F930B
:100AE0008F939F93EF93FF93E091C401F091C50121
:100AF0008081E091CA01F091CB0182FD1BC0908101
:100B00008091CD018F5F8F732091CE01821741F0CC
:100B1000E091CD01F0E0EC54FE4F958F8093CD0134
:100B2000FF91EF919F918F912F910F900FBE0F909A
:100B30001F9018958081F4CFCF92DF92EF92FF92B1
:100B40000F931F93E82FF92F05C0015011092109B8
:100B5000310961F1908196239417B9F305C00150D2
:100B600011092109310911F1908196239413F7CFCE
:100B7000C12CD12CE12CF12C0AC08FEFC81AD80A55
:100B8000E80AF80A0C151D052E053F0579F080814D
:100B90008623841791F36C2D7D2D8E2D9F2D1F9113
:100BA0000F91FF90EF90DF90CF90089560E070E09C
:100BB00080E090E01F910F91FF90EF90DF90CF9039
:100BC0000895E4EBF1E01382128288EE93E0A0E056
:100BD000B0E084839583A683B78384E091E091831A
:100BE000808385EC90E09587848784EC90E09787FC
:100BF000868780EC90E0918B808B81EC90E0938BEA
:100C0000828B82EC90E0958B848B86EC90E0978BC6
:100C1000868B118E128E138E148EE1E5F2E0138214
:100C2000128286E191E09183808382E084838FEF5A
:100C3000858383E0868384E0878385E0808786E000
:100C4000818787E082871386148615861686178625
:100C500081E00C947D03789484B5826084BD84B572
:100C6000816084BD85B5826085BD85B5816085BDA7
:100C700080916E00816080936E001092810080915F
:100C800081008260809381008091810081608093E7
:100C90008100809180008160809380008091B1000C
:100CA00084608093B1008091B00081608093B00037
:100CB00080917A00846080937A0080917A008260CB
:100CC00080937A0080917A00816080937A0080918D
:100CD0007A00806880937A001092C100E091C4018C
:100CE000F091C50182E08083E091C001F091C101E3
:100CF0001082E091C201F091C3018FEC80831092C9
:100D0000CC01E091C801F091C90186E08083E091B7
:100D1000C601F091C701808180618083E091C601A6
:100D2000F091C701808188608083E091C601F091D5
:100D3000C701808180688083E091C601F091C7017E
:100D400080818F7D808360E27EE480E090E00E947D
:100D5000430161E08FE00E94D80060E08EE00E94D5
:100D6000D80061E082E10E94D80061E080E00E944A
:100D7000D80060E080E10E94D80082E00E947D03FC
:100D800080E00E941E048AE291E00E94D70268EE91
:100D900073E080E090E00E94430161E082E10E9404
:100DA0008C000E947503C3E0D0E093E2A92EB12C21
:100DB00024E9222E20E0322E30E0832E30E0932EE4
:100DC0008DE00E9409019093AA018093A90160E03F
:100DD0008FE00E948C00CE010197F1F761E08FE077
:100DE0000E948C00C5010197F1F760E08FE00E943E
:100DF0008C00E8EAF0E06491F1018491E82FF0E0E2
:100E0000EE0FFF1FE859FF4F8591949100E412E423
:100E10002FE030E0462F0E949C0561157105810589
:100E2000910529F06F5F7F4F8F4F9F4F9F700E94FA
:100E30009C0920E030E040E05FE30E94530A2DEC83
:100E40003CEC48EE51E40E94FB086093A5017093CE
:100E5000A6018093A7019093A80180E10E94090157
:100E6000BC01990F880B990B0E949E0926EF38E26E
:100E70004CE950E40E94530A20E030E040E251E4A3
:100E80000E94FB086093A1017093A2018093A301CB
:100E90009093A4018091A001811136C00E94750336
:100EA00080E00E941E048BE391E00E94D7026091D3
:100EB000A5017091A6018091A7019091A80150E031
:100EC00040E00E94320485E491E00E94D70281E074
:100ED0000E941E0488E491E00E94D7026091A10163
:100EE0007091A2018091A3019091A40141E050E092
:100EF0000E94320485E591E00E94D70268EE73E01B
:100F000080E090E00E9443018091A9019091AA01A4
:100F1000813991409CF081E08093A0010E9475038B
:100F200080E00E941E0489E591E00E94D70281E0E2
:100F30000E941E0486E691E00E94D702C090A101A3
:100F4000D090A201E090A301F090A40120E030E055
:100F500040E252E4C701B6010E944E0A87FD50C02C
:100F600020E030E048E452E4C701B6010E94F608F0
:100F700018160CF445C04090A5015090A601609051
:100F8000A7017090A80120E030E048ED51E4C301D2
:100F9000B2010E94F60818169CF120E030E040E70C
:100FA00051E4C301B2010E944E0A18164CF581E0CB
:100FB0008093A00161E080E00E948C000E94750394
:100FC00080E00E941E0489E591E00E94D70281E042
:100FD0000E941E0485E791E00E94D70268EC70E051
:100FE00080E090E00E9443018114910409F4E8CE6E
:100FF0000E94DF01882309F4E3CE0E940000E0CEC6
:1010000020E030E040E752E4C701B6010E944E0AFA
:1010100018160CF04FC04090A5015090A6016090AA
:10102000A7017090A80120E030E040EA51E4C3013C
:10103000B2010E944E0A87FD19C020E030E040EF67
:1010400051E4C301B2010E94F60818167CF081E059
:101050008093A00161E080E00E948C000E947503F3
:1010600080E00E941E0483E891E0AFCF20E030E0F2
:1010700040EA51E4C301B2010E94F60887FF1AC09A
:1010800081E08093A00161E080E00E948C0060E03C
:1010900082E10E948C000E94750380E00E941E0481
:1010A00083E891E00E94D70281E00E941E0481E95A
:1010B00091E092CF20E030E040E252E4C701B60177
:1010C0000E944E0A1816D4F420E030E048E452E4BE
:1010D000C701B6010E94F608181684F020E030E03F
:1010E00040E751E46091A5017091A6018091A701AC
:1010F0009091A8010E94F60887FDC2CF1092A0012E
:1011000061E082E10E948C0060E080E00E948C003F
:1011100065CF5058BB27AA270E94A1080C94140A37
:101120000E94060A38F00E940D0A20F039F49F3F11
:1011300019F426F40C94030A0EF4E095E7FB0C94E2
:10114000FD09E92F0E94250A58F3BA1762077307B1
:101150008407950720F079F4A6F50C94470A0EF45D
:10116000E0950B2EBA2FA02D0B01B90190010C01B7
:10117000CA01A0011124FF27591B99F0593F50F4CF
:10118000503E68F11A16F040A22F232F342F442727
:10119000585FF3CF469537952795A795F04053951F
:1011A000C9F77EF41F16BA0B620B730B840BBAF0EF
:1011B0009150A1F0FF0FBB1F661F771F881FC2F75A
:1011C0000EC0BA0F621F731F841F48F4879577956E
:1011D0006795B795F7959E3F08F0B0CF9395880F28
:1011E00008F09927EE0F9795879508950E94D909E1
:1011F00008F481E008950E940F090C94140A0E94DB
:101200000D0A58F00E94060A40F029F45F3F29F0C9
:101210000C94FD0951110C94480A0C94030A0E9485
:10122000250A68F39923B1F3552391F3951B550BC8
:10123000BB27AA2762177307840738F09F5F5F4FA9
:10124000220F331F441FAA1FA9F335D00E2E3AF0E8
:10125000E0E832D091505040E695001CCAF72BD000
:10126000FE2F29D0660F771F881FBB1F2617370751
:101270004807AB07B0E809F0BB0B802DBF01FF2783
:1012800093585F4F3AF09E3F510578F00C94FD095A
:101290000C94480A5F3FE4F3983ED4F38695779523
:1012A0006795B795F7959F5FC9F7880F911D96953C
:1012B000879597F90895E1E0660F771F881FBB1F98
:1012C000621773078407BA0720F0621B730B840B45
:1012D000BA0BEE1F88F7E09508950E942D0A88F05A
:1012E0009F5798F0B92F9927B751B0F0E1F0660FEA
:1012F000771F881F991F1AF0BA95C9F714C0B1302B
:1013000091F00E94470AB1E008950C94470A672FB4
:10131000782F8827B85F39F0B93FCCF38695779559
:101320006795B395D9F73EF4909580957095619542
:101330007F4F8F4F9F4F0895E89409C097FB3EF46D
:1013400090958095709561957F4F8F4F9F4F992312
:10135000A9F0F92F96E9BB279395F6958795779590
:101360006795B795F111F8CFFAF4BB0F11F460FF50
:101370001BC06F5F7F4F8F4F9F4F16C0882311F0A8
:1013800096E911C0772321F09EE8872F762F05C0BC
:10139000662371F096E8862F70E060E02AF09A9557
:1013A000660F771F881FDAF7880F9695879597F94C
:1013B0000895990F0008550FAA0BE0E8FEEF1616E6
:1013C0001706E807F907C0F012161306E407F50739
:1013D00098F0621B730B840B950B39F40A2661F0AD
:1013E000232B242B252B21F408950A2609F4A14050
:1013F000A6958FEF811D811D089597F99F6780E85D
:1014000070E060E008959FEF80EC089500240A9456
:101410001616170618060906089500240A941216CF
:101420001306140605060895092E0394000C11F402
:10143000882352F0BB0F40F4BF2B11F460FF04C0AF
:101440006F5F7F4F8F4F9F4F089557FD9058440F08
:10145000551F59F05F3F71F04795880F97FB991F13
:1014600061F09F3F79F087950895121613061406D0
:10147000551FF2CF4695F1DF08C01616170618065D
:10148000991FF1CF86957105610508940895E89438
:10149000BB2766277727CB0197F908950E94D909C2
:1014A00008F48FEF08950E94660A0C94140A0E94B3
:1014B000060A38F00E940D0A20F0952311F00C94D2
:1014C000FD090C94030A11240C94480A0E94250A71
:1014D00070F3959FC1F3950F50E0551F629FF00187
:1014E000729FBB27F00DB11D639FAA27F00DB11DA0
:1014F000AA1F649F6627B00DA11D661F829F222729
:10150000B00DA11D621F739FB00DA11D621F839FAF
:10151000A00D611D221F749F3327A00D611D231F85
:10152000849F600D211D822F762F6A2F11249F57D3
:1015300050409AF0F1F088234AF0EE0FFF1FBB1FD6
:10154000661F771F881F91505040A9F79E3F510595
:1015500080F00C94FD090C94480A5F3FE4F3983E38
:10156000D4F3869577956795B795F795E7959F5F3F
:10157000C1F7FE2B880F911D9695879597F90895D1
:101580000E94D909880B990B0895A1E21A2EAA1B73
:10159000BB1BFD010DC0AA1FBB1FEE1FFF1FA21723
:1015A000B307E407F50720F0A21BB30BE40BF50B20
:1015B000661F771F881F991F1A9469F760957095A9
:1015C000809590959B01AC01BD01CF010895EE0F70
:0E15D000FF1F0590F491E02D0994F894FFCFD1
:1015DE000000000015027501A2016202D301B101E3
:1015EE00C501000000002C047501830282026E61A9
:1015FE006E00696E66006F76660020205361666528
:10160E002044697374616E6365200044697374616C
:10161E006E63653D00636D0054656D706572617437
:10162E007572653D00C2B0430053797374656D20C9
:10163E00416C657274006C65616B206465746563E2
:10164E007465642100636C6F7365206F626A6563F5
:10165E0074210053797374656D20416C6572743A10
:10166E000053797374656D204C4F434B45442100F4
:00000001FF
